:100000000C9481000C94D70F0C94D70F0C94D70F3D
:100010000C94D70F0C94D70F0C94D70F0C94D70FC8
:100020000C94D70F0C94D70F0C94D70F0C94D70FB8
:100030000C94D70F0C94D70F0C94D70F0C94D70FA8
:100040000C94D70F0C94D70F0C94D70F0C94D70F98
:100050000C94D70F0C94D70F0C94D70F0C94D70F88
:100060000C947D0A0C94EA0D0C948E0E0C949A0F4D
:100070000C94D70F0C94540F0C94D70F0C94D70FEB
:100080000C94D70F0C94D70F0C94D70F0C94D70F58
:100090000C94130E0C94B70E0C94D70F0C94D70F2E
:1000A0000C94D70F0C94D70F0C94D70F0C94D70F38
:1000B0000C94D70F0C94D70F0C94D70F0C94D70F28
:1000C0000C94D70F0C94D70F0C94D70F0C943C0EB4
:1000D0000C94E00E0C94D70F0C94650E0C94090F41
:1000E0000C94D70F02000A00800A000BE0001FBC2E
:1000F0000BE00CE0800CE00D4300219C0D430D59FA
:10010000800011241FBECFEFD1E2DEBFCDBF00E0E3
:100110000CBFE4EEF0E041E019C0B791A791379130
:100120002791079107FD0EC097918791EF01F92F55
:10013000E82F0BBF07900D92A217B307D9F7FE0166
:100140001BBE04C01D92A217B307E1F7E130F4070C
:0E01500021F70E94FC0B0C948F0FF894FFCF48
:10015E0000000000000000C0E0F0F87C3C3E1E1FD6
:10016E001F1F1F1F1E3E3CF8E00000000000000095
:10017E000000000000000000000000000000000071
:10018E000000000000000000000000000000000061
:10019E000000000000000000000000000000000051
:1001AE000000000000000000000000000000000041
:1001BE000000000000000000000000000000000031
:1001CE000000000000000000000000000000000021
:1001DE00000000C0F0FC3F0F030100000000000013
:1001EE0000000000000000007F0000000000000082
:1001FE0000000000000000E0E0E0E0E0E0E0E0E011
:10020E00E0E0E0E0E0E0E0E0C08000000000E0E0E0
:10021E00E0E0E0E0E0E0E0E0E0E0E0E0E0E0E000B0
:10022E0000E0E0E0E0E0E0E0E0E0E0E0E0E0E0E0A0
:10023E00E0E0E0C080000000000080C0C0E0E0E030
:10024E00E0E0E0E0E0E0E0E0E0E0E0C0C080000000
:10025E0000E0FEFF070000000000000000000000AC
:10026E000000000000000403000000000000000079
:10027E0000000000000000FFFF010101010101016B
:10028E000101010101010103FFFFFC000000FFFF5E
:10029E000101010101010101010101010101010041
:1002AE0000FFFF0101010101010101010101010135
:1002BE0001010307FFFFF80000FCFFFF030101012E
:1002CE0001010101010101010101010307FFFE000E
:1002DE00F0FFFF0100000000000000000000C00061
:1002EE000000000000000000000000000000000000
:1002FE0000000000000000FFFF383838383838386A
:10030E003838383838383C7EFFE7C0000000FFFF31
:10031E003C3C3C3C3C3C3C3C3C3C3C3C3C3C38004F
:10032E0000FFFF00000000000000000000000000C1
:10033E000000000001FFFF0000FFFF0000000000B2
:10034E0000000000000000000000000000FFFF00A1
:10035E00FFFFFF000000000000000000003EFFF065
:10036E00E0E0E0E0C0C080000000000000000000FF
:10037E0000000000000000FFFF0000000000000071
:10038E00000000000000000080FFFF000000FFFFE3
:10039E00000000000000000000000000000000004F
:1003AE0000FFFF0000000000000000000000000041
:1003BE0000000080FFFF3F0000FFFFFC0000000078
:1003CE00000000000000000000000000C0FFFF0061
:1003DE0007FFFFC000000000000000000000000149
:1003EE000307070F1F3F7FFFFFFCF8E00000000030
:1003FE00000000000000001F1F1E1E1E1E1E1E1EDF
:10040E001E1E1E1E1E1E0E0F0F07030000001F1FB6
:10041E001E1E1E1E1E1E1E1E1E1E1E1E1E1E1E000C
:10042E00001F1F1E1E1E1E1E1E1E1E1E1E1E1E1EFA
:10043E001E0E0F0F07010000000003070F0F0E1E08
:10044E001E1E1E1E1E1E1E1E1E1E0F0F0F0701003D
:10045E0000010F7FF080000000000000000000008F
:10046E0000000000000080F9FFFF3F0F00000000B9
:10047E00000000000000000000000000000000006E
:10048E00000000000000000000000000000000005E
:10049E00000000000000000000000000000000004E
:1004AE00000000000000000000000000000000003E
:1004BE00000000000000000000000000000000002E
:1004CE00000000000000000000000000000000001E
:1004DE000000000001030E18102040404040C0C034
:1004EE00E06070383C1F0F070300000000000000A2
:1004FE0000000000000000000000000000000000EE
:10050E0000000000000000000000000000000000DD
:10051E0000000000000000000000000000000000CD
:10052E0000000000000000000000000000000000BD
:10053E0000000000000000000000000000000000AD
:10054E00000000000000000000000000000000009D
:10055E00000000000000000000000000000000008D
:10056E0000000000000000000080C0E0F0F0F8FC89
:10057E00FCFEFCC0808000000000000000000000B7
:10058E00000000000000E0800000000000000000FD
:10059E0000000000000000000080E00000000000ED
:1005AE0000000000000000000000008080C0FCFE83
:1005BE00FCFCF8F0F0E0C08000000000000000003D
:1005CE00000000000000000000000000000000001D
:1005DE00000000000000000000000000000000000D
:1005EE000080C0E0F0F8FCFEFFFFFFFFFFFFFFFF03
:1005FE00FFFFFFFFFFFFFFFFFFFEFEFEFCFCFCF810
:10060E00F8F8F8F8F8F8FFFFFFFEFEFEFEFEFEFE1D
:10061E00FEFEFEFEFEFEFEFEFFFFFFF8F8F8F8F807
:10062E00F8F8FCFCFCFEFEFEFFFFFFFFFFFFFFFFE6
:10063E00FFFFFFFFFFFFFFFFFFFEFCF8F0E0C080B3
:10064E00000000000000000000000000000000009C
:10065E0000000000000000000000000080E0F0FC40
:10066E00FEFFFFFFFFFFFFFFFFFFFFFFFFFFFFFF8D
:10067E00FFFFFFFFFFFFFFFFFFFFFFFFFFFFFFFF7C
:10068E00FFFFFFFFFFFFFFFFFFFFFFFFFFFFFFFF6C
:10069E00FFFFFFFFFFFFFFFFFFFFFFFFFFFFFFFF5C
:1006AE00FFFFFFFFFFFFFFFFFFFFFFFFFFFFFFFF4C
:1006BE00FFFFFFFFFFFFFFFFFFFFFFFFFFFFFFFF3C
:1006CE00FFFCF0E0800000000000000000000000D1
:1006DE000000000000000000E0F8FCFFFFFFFFFF3D
:1006EE00FFFFFFFFFFFFFFFFFFFFFFFFFFFFFFFF0C
:1006FE00FFFFFFFFFFFFFFFFFFFFFFFFFFFFFFFFFC
:10070E00FFFFFFFFFFFFFFFFFFFFFFFFFFFFFFFFEB
:10071E00FFFFFFFFFFFFFFFFFFFFFFFFFFFFFFFFDB
:10072E00FFFFFFFFFFFFFFFFFFFFFFFFFFFFFFFFCB
:10073E00FFFFFFFFFFFFFFFFFFFFFFFFFFFFFFFFBB
:10074E00FFFFFFFFFFFFFCF8E000000000000000CD
:10075E000000000080F0FCFFFFFFFFFFFFFFFFFF28
:10076E00FFFFFFFFFFFFFFFFFFFFFFFFFFFFFFFF8B
:10077E00FFFFFFFFFFFFFFFFFFFFFFFFFFFFFFFF7B
:10078E00FFFFFFFFFFFFFFFFFFFFFFFFFFFFFFFF6B
:10079E00FFFFFFFFFFFFFFFFFFFFFFFFFFFFFFFF5B
:1007AE00FFFFFFFFFFFFFFFFFFFFFFFFFFFFFFFF4B
:1007BE00FFFFFFFFFFFFFFFFFFFFFFFFFFFFFFFF3B
:1007CE00FFFFFFFFFFFFFFFFFFFFFCF080000000B9
:1007DE000000E0FCFFFFFFFFFFFFFFFFFFFFFF7FBB
:1007EE007F7F7F3F3F7FFFFFFFFF3F1F1F1F1F1FAB
:1007FE001F1F0F0F0F1F3F3F7FFFFFFFFFFFFFFF6B
:10080E00FFFFFFFFFFFFFFFFFFFFFFFFFFFFFFFFEA
:10081E00FFFFFFFFFFFFFFFFFFFFFFFFFFFFFFFFDA
:10082E00FFFFFFFFFFFFFFFF7F3F3F1F0F0F0F1F5A
:10083E001F1F1F1F1F1F3FFFFFFFFF7F3F3F7F7FBA
:10084E007F7FFFFFFFFFFFFFFFFFFFFFFFFCE000CB
:10085E0000FC7F3F0F0F07030101010100000000A4
:10086E000000000000000001010000000000000078
:10087E000000000000000000000000010303070F4D
:10088E001F3F3F7FFFFFFFFFFFFFFFFFFFFFFFFF4A
:10089E00FFFFFFFFFFFFFFFFFFFFFFFFFF7F3F3F5A
:1008AE001F0F0703030100000000000000000000FE
:1008BE000000000000000000010100000000000028
:1008CE0000000000000101010103070F0F3F7FFC34
:1008DE000001000000000000000000000000000009
:1008EE0000000000000000000000000000000000FA
:1008FE0000000000000000000000000000000000EA
:10090E00000000000000010303070F1F1F3F7FFFC1
:10091E00FFFF7F3F1F1F0F070303010000000000B2
:10092E0000000000000000000000000000000000B9
:10093E0000000000000000000000000000000000A9
:10094E000000000000000000000000000000000198
:10095E000000000000000000000000000000000089
:10096E0000000000000000000080C0E0E0F0F8FC95
:10097E00FCFEF8C0808000000000000000000000B7
:10098E0000000000000000800000000000000000D9
:10099E0000000000000000000080000000000000C9
:1009AE0000000000000000000000008080C0F8FE83
:1009BE00FCFCF8F0E0E0C080000000000000000049
:1009CE000000000000000000000000000000000019
:1009DE000000000000000000000000000000000009
:1009EE000080C0E0F0F8FCFEFFFFFFFFFFFFFFFFFF
:1009FE00FFFFFFFFFFFFFF7F3F1E1E1E1C1C1C186C
:100A0E00181818180808080F0F0E0E0E0E0E0E0EE0
:100A1E000E0E0E0E1E1E1E1E1F1F1818181898984A
:100A2E0098989C9C9C1E1E1E3F7FFFFFFFFFFFFFA2
:100A3E00FFFFFFFFFFFFFFFFFFFEFCF8F0E0C080AF
:100A4E000000000000000000000000000000000098
:100A5E0000000000000000000000000080E0F0FC3C
:100A6E00FEFFFFFFFFFFFFFFFFFFFFFFFFFFFF7F09
:100A7E003F1F0F87E3F1381C060301000000000042
:100A8E0000003C7C7EFEFEFFFFFFFFFFFFFFFFFF2F
:100A9E00FFFFFFFFFFFFFFFFFFFFFFFFFEFEFEFC5E
:100AAE00FCFDF9FBF3E3E3C0C0800831E3870F1FC1
:100ABE003F7FFFFFFFFFFFFFFFFFFFFFFFFFFFFF78
:100ACE00FEFCF0E0800000000000000000000000CE
:100ADE000000000000000000C0F0FCFEFFFFFFFF62
:100AEE00FFFFFFFFFFFFFFFFFFFFFFFFCF03013001
:100AFE00FCFEFF3F030000000000000000000000AD
:100B0E0000000000000000000000000000000000D7
:100B1E0000000101010101010101010101030303B3
:100B2E00030707070F1F1F3F7FFFFFFEFCF9E7CEEE
:100B3E0018300183CFFFFFFFFFFFFFFFFFFFFFFF17
:100B4E00FFFFFFFFFFFEFCF0C000000000000000F2
:100B5E000000000080F0FCFFFFFFFFFFFFFFFFFF24
:100B6E00FFFFFFFFFFFFFFFFFFFFFFFFFFFFFEFC8B
:100B7E00F8F1E3C0000000000000000000000000DB
:100B8E000000000000000000000000000000000057
:100B9E000000000000000000000000000000000047
:100BAE000000000000000000000001030FC7E1F08C
:100BBE00F8FCFEFFFFFFFFFFFFFFFFFFFFFFFFFF42
:100BCE00FFFFFFFFFFFFFFFFFFFFFCF080000000B5
:100BDE000000C0FCFFFFFFFFFFFFFFFFFFFFFF7FD7
:100BEE007F7F7F3F3F7FFFFFFF7F3F1F1F1F1F1F27
:100BFE001F0F0F0F0F1E1C387060C2C68C1C3C7C62
:100C0E00F8F8F8F8F8F0F0F0F0F0F0F0F0F0F0F0AE
:100C1E00F0F0F0F0F0F0F0F0E0E0C0C08000000086
:100C2E000000000080C0C06070381C1E0F0F0F0F38
:100C3E001F1F1F1F1F1F3F7FFFFFFF7F3F3F7F7F36
:100C4E007F7FFFFFFFFFFFFFFFFFFFFFFFFCC000E7
:100C5E0000FC7F3F0F0707030101010000000000A9
:100C6E000000000000000001010000000000000074
:100C7E000000000000000000000000010303060C4D
:100C8E0018102143038307070F8F8F8F8F9F9F9F0E
:100C9E009F9F8F8F8F8F8F0F070703830140201029
:100CAE00180C060303010000000000000000000005
:100CBE000000000000000000010100000000000024
:100CCE000000000000000101010307070F3F7FFC39
:100CDE000001000000000000000000000000000005
:100CEE0000000000000000000000000000000000F6
:100CFE0000000000000000000000000000000000E6
:100D0E0000000000000001020000010103070F1F98
:100D1E001F1F0F070301000000020100000000006A
:100D2E0000000000000000000000000000000000B5
:100D3E0000000000000000000000000000000000A5
:100D4E000000000000000000000000000000000194
:0D0D5E0057656C636F6D65204245444F0082
:100D6C002F923F924F925F926F927F928F929F92AF
:100D7C00AF92BF92CF92DF92EF92FF920F931F939D
:100D8C00CF93DF93CDB7DEB762970FB6F894DEBF83
:100D9C000FBECDBF988B8F872C873D874E87262F14
:100DAC0030E03B872A8728543F4F3B832A833D837F
:100DBC002C83BC016A5F7F4F80E841E00E94560B98
:100DCC006F857889685F7F4F80E840E00E94560B02
:100DDC006A818F8598890E944A0C812C312C212C98
:100DEC000F2EFFE3FF2EF02D412C512CA12CB12CFA
:100DFC00F982F82C8F84988862C16A847B84719400
:100E0C00619471087694762C66247794679435E017
:100E1C00631A3CEF730A6414750408F45EC1603203
:100E2C0009F048C069C0C801840D951D9A8B898B47
:100E3C0020E030E040E05FE3622D7B2D872D99812F
:100E4C000E94A50F362EF72EA82E992E0E94AB0FBE
:100E5C007695762F66277795679529893A8926178F
:100E6C00370729F505301105F1F160E48A819B8182
:100E7C000E944A0C8A819B810E946D0F2C813D81BE
:100E8C00B90180E090E00E94E20C222D3B2D472D11
:100E9C0059810E94A50F0E94BB0D8A819B810E94E3
:100EAC004A0C232CBF2C7A2C998249885A880F5FC4
:100EBC001F4F0BC001E010E0BF82AE8279866886BE
:100ECC009B828A82B32C722C2F2C0630110508F4CD
:100EDC00AACF8A809B80F22C3B2CAE80BF80272C23
:100EEC006884798409C08A809B80F22C3B2CAE806C
:100EFC00BF80272C688479846414750408F4EDC0D1
:100F0C00F6015E2D0E94C70F603209F44DC01B82A2
:100F1C001A8219819BC0F6015E2D0E94C70F70E0EA
:100F2C0060527109FB01EE0FFF1FEE0FFF1FE60F62
:100F3C00F71FE050F64F2A813B81E20FF31F6081CF
:100F4C00C4010E94960C3FEF431A530AC2018F73DF
:100F5C009927892B19F5C4010E946D0F2C813D81B5
:100F6C00B90180E090E00E94E20C2F2D332D422D30
:100F7C00512F0E94A50F0E94BB0DC4010E944A0C68
:100F8C0020E030E040E05FE36F2D732D822D912F38
:100F9C000E94A50FF62E372E282E192F8A819B81A1
:100FAC0001969B838A8303C01B821A8219818A81D2
:100FBC009B81059708F4AFCF19837EC0F6015E2D97
:100FCC000E94C70F70E060527109FB01EE0FFF1F0A
:100FDC00EE0FFF1FE60FF71FE050F64F2A813B8103
:100FEC00E20FF31F6081C4010E94960C3FEF431A7D
:100FFC00530AC2018F739927892B19F5C4010E94DA
:10100C006D0F2C813D81B90180E090E00E94E20CD3
:10101C002F2D332D422D512F0E94A50F0E94BB0D59
:10102C00C4010E944A0C20E030E040E05FE36F2DE9
:10103C00732D822D912F0E94A50FF62E372E282E60
:10104C00192F8A819B8101969B838A832A813B81FC
:10105C002530310508F4B2CF198360E0C4010E9439
:10106C00960C3FEF431A530AC2018F739927892BB1
:10107C0019F5C4010E946D0F2C813D81B90180E0EE
:10108C0090E00E94E20C2F2D332D422D59810E94AD
:10109C00A50F0E94BB0DC4010E944A0C20E030E059
:1010AC0040E05FE36F2D732D822D99810E94A50F77
:1010BC00F62E372E282E99833FEFA31AB30ACC8431
:1010CC00DD84EE84CA0CDB1CE11CB7FCEA94F6014F
:1010DC005E2D0E94C70F611190CE60E48F859889B8
:1010EC000E944A0C62960FB6F894DEBF0FBECDBFBD
:1010FC00DF91CF911F910F91FF90EF90DF90CF90E8
:10110C00BF90AF909F908F907F906F905F904F901B
:06111C003F902F900895A2
:101122002F923F924F926F927F928F92CF92DF9245
:10113200EF921F93CF93DF9300D00F920F92CDB710
:10114200DEB79D838C83FC018081806880838181EE
:101152008E7F8183BF0180E80E94040AEC81FD81B9
:1011620084818068848385818E7F8583BF016C5FE3
:101172007F4F80E80E94040AEC81FD8182818068B1
:10118200828383818E7F8383BF016E5F7F4F80E87E
:101192000E94040AEC81FD818285806882878385B2
:1011A2008E7F83873F01FAE06F0E711C20E8822E4A
:1011B200882DB3010E94040AEC81FD81868180683A
:1011C200868387818E7F8783CF0106969C0140E8C4
:1011D20029833A834B83842FB9010E94040AEC814C
:1011E200FD8180858068808781858E7F81871F0150
:1011F200F8E02F0E311C20E8422E842DB1010E940E
:10120200040AEC81FD8184858068848796858585C2
:1012120090FB80F985876F01FCE0CF0ED11C20E89E
:10122200E22E8E2DB6010E94040A10E024C0E12FA6
:10123200F0E0BF01660F771FAC81BD81A60FB71F1B
:101242001F968C911F9780681F968C933896EE0F8D
:10125200FF1F8C819D81E80FF91F319781818E7F5D
:101262008183615F7F4FEC81FD816E0F7F1F80E87C
:101272000E94040A1F5F1830D0F241E069817A812E
:101282008B810E94560B41E0842DB1010E94560BC6
:1012920041E0882DB3010E94560B41E08E2DB6012C
:1012A2000E94560B8FE39CE90197F1F700C0000002
:1012B2006EE38C819D810E944A0C60E48C819D8149
:1012C2000E944A0C68EB8C819D810E944A0C60EC62
:1012D2008C819D810E944A0C6FE38C819D810E94CA
:1012E2004A0C0F900F900F900F900F90DF91CF91BB
:1012F2001F91EF90DF90CF908F907F906F904F90E3
:061302003F902F900895BA
:101308002F923F924F925F926F927F928F92CF92DD
:10131800DF92EF92FF920F931F93CF93DF938C018D
:101328003A01862EBC016A5F7F4F80E841E00E9447
:10133800560BB801685F7F4F80E840E00E94560B6B
:101348000F2E212C312C412CFFE35F2EF02DE12CA8
:10135800F12CC12CD12C38C0CE018E0D9F1D482DEB
:101368009301280F391F411D97FD4A95A42FC901E4
:10137800FC016491C8010E94960C219602C0C0E04D
:10138800D0E0C034D10544F3C8010E946D0F20E0BD
:1013980030E048E353E4C201B1010E94A50F0E9466
:1013A800BB0DC8010E944A0C20E030E040E05FE33A
:1013B800C201B1010E94A50F1B012C01F0E4EF0E40
:1013C800F11C2FEFC21AD20A30E1C316D104BCF2C5
:1013D80060E4C8010E944A0C68EBC8010E944A0CEC
:1013E800DF91CF911F910F91FF90EF90DF90CF90F9
:1013F8008F907F906F905F904F903F902F900895BF
:10140800CF92DF92EF929B01482F611571058105FC
:1014180009F466C0FB01542F0E94C70F62956F70D4
:101428006770A62FF901542F0E94C70F6F70862F7F
:1014380090E08B3091050CF055C06901E42EF9015C
:101448005E2D0E94C70F67FB662760F9662329F1A6
:10145800613009F049C0880F991FFC01EB5EF24F1B
:101468000190F081E02D208181E090E002C0880F9A
:10147800991FAA95E2F7822B8083AE2DC6010196AB
:10148800A11DFC015A2F0E94C70F462F41708E2DB7
:10149800B6010E94560B81E028C0880F991FFC01F5
:1014A800EB5EF24F0190F081E02D208181E090E029
:1014B80002C0880F991FAA95E2F78095822380833E
:1014C800AE2DC6010196A11DFC015A2F0E94C70F1F
:1014D800462F41708E2DB6010E94560B81E005C043
:1014E80080E003C080E001C080E0EF90DF90CF9003
:0214F800089555
:1014FA001F920F920FB60F9211240BB60F922F93D1
:10150A003F938F939F93EF93FF930CB404FE1BC0FA
:10151A008091530D813019F48093550D4EC08091FE
:10152A00530D833009F049C01092540D8091560D25
:10153A0090E00196907899231CF401979F6F019689
:10154A008093560D3AC08091530D823021F58091D7
:10155A00580D90E00196907899231CF401979F6F9B
:10156A0001962091570D30E08217930731F1E091EF
:10157A00580DF0E08EB5E052F44F80838091580DFB
:10158A0090E00196907899231CF401979F6F019639
:10159A008093580D12C08091530D833071F41092CC
:1015AA00540D8091560D90E00196907899231CF481
:1015BA0001979F6F01968093560DFF91EF919F912E
:1015CA008F913F912F910F900BBE0F900FBE0F90EE
:0415DA001F901895B1
:1015DE0011C00E94B20F38F00E94B90F20F039F4FA
:1015EE009F3F19F426F40C94D40F0EF4E095E7FB0C
:1015FE000C94CE0FE92F0E94320F58F3BA176207E0
:10160E0073078407950720F079F4A6F50C94C00FA4
:10161E000EF4E0950B2EBA2FA02D0B01B9019001FF
:10162E000C01CA01A0011124FF27591B99F0593F43
:10163E0050F4503E68F11A16F040A22F232F342F8B
:10164E004427585FF3CF469537952795A795F040D9
:10165E005395C9F77EF41F16BA0B620B730B840BEE
:10166E00BAF09150A1F0FF0FBB1F661F771F881FA6
:10167E00C2F70EC0BA0F621F731F841F48F48795FE
:10168E0077956795B795F7959E3F08F0B0CF9395F0
:0E169E00880F08F09927EE0F9795879508950D
:1016AC00CF92DF92EF926B01E82E611571058105E7
:1016BC0009F442C0FB015E2D0E94C70F62956F704A
:1016CC006770862FF6015E2D0E94C70F6F7070E059
:1016DC006B3071059CF54423C1F0413089F5660FE0
:1016EC00771FFB01E150F34F0190F081E02D408119
:1016FC0021E030E0B90102C0660F771F8A95E2F74E
:10170C00CB01842B808381E01CC0660F771FFB010B
:10171C00E150F34F0190F081E02D408121E030E069
:10172C00B90102C0660F771F8A95E2F7CB0180954D
:10173C008423808381E005C080E003C080E001C089
:0A174C0080E0EF90DF90CF90089549
:10175600CF93DF9390E0FC01E15BF24F208130E014
:101766002F5F3F4F307833232CF4215031093F6FE0
:101776002F5F3F4FFC01E55BF24F408150E024179D
:101786003507A1F1EC01C15BD24F3881FC01EE0FA8
:10179600FF1FE55DF24FA081B1812C91F82FEE2756
:1017A600E050FA4FE30FF11D2083288130E02F5FD0
:1017B6003F4F307833232CF4215031093F6F2F5F90
:1017C6003F4FFC01E15BF24F2083880F991FFC011C
:1017D600E55CF24F0190F081E02D808184FD05C02B
:1017E600808183FD02C0808182FD8C91DF91CF9143
:0217F600089554
:1017F80080EE9CE00E94910880EE9CE00E94570DCC
:101808002EE53DE040E063E080EE9CE00E94B606F5
:101818002FEF83ED90E3215080409040E1F700C026
:10182800000080EE9CE00E94570D4EE551E060E01C
:1018380080EE9CE00E9484092FEF84E39CE0215015
:1018480080409040E1F700C000004EE559E060E0BC
:1018580080EE9CE00E9484092FEF84E39CE02150F5
:1018680080409040E1F700C000004EE555E060E0A0
:1018780080EE9CE00E9484092FEF84E39CE02150D5
:0C18880080409040E1F700C00000CFCF8E
:10189400CF92DF92EF920F931F93CF93DF93EC01DC
:1018A400062F10E015C0612F70E0402F50E0012E8C
:1018B40002C0559547950A94E2F7660F771F615F5A
:1018C4007F4F6C0F7D1F417080E80E94560B1F5F95
:1018D400183048F3BE0180E840E00E94560BBE0178
:1018E4006E5F7F4F80E840E00E94560B24966E01A5
:1018F40080E8E82E41E08E2DB6010E94560B82E06E
:101904008A95F1F700C040E08E2DB6010E94560B77
:1019140082E08A95F1F700C0DF91CF911F910F917A
:08192400EF90DF90CF900895D1
:10192C00CF92DF92EF920F931F93CF93DF93EC0143
:10193C00062F10E015C0612F70E0402F50E0012EF3
:10194C0002C0559547950A94E2F7660F771F615FC1
:10195C007F4F6C0F7D1F417080E80E94560B1F5FFC
:10196C00183048F3BE0180E841E00E94560BBE01DE
:10197C006E5F7F4F80E840E00E94560B24966E010C
:10198C0080E8E82E41E08E2DB6010E94560B82E0D5
:10199C008A95F1F700C040E08E2DB6010E94560BDF
:1019AC0082E08A95F1F700C0DF91CF911F910F91E2
:0819BC00EF90DF90CF90089539
:1019C400E89409C097FB3EF49095809570956195D5
:1019D4007F4F8F4F9F4F9923A9F0F92F96E9BB278B
:1019E4009395F695879577956795B795F111F8CF07
:1019F400FAF4BB0F11F460FF1BC06F5F7F4F8F4F72
:101A04009F4F16C0882311F096E911C0772321F067
:101A14009EE8872F762F05C0662371F096E8862FFF
:101A240070E060E02AF09A95660F771F881FDAF756
:0A1A3400880F9695879597F908959D
:101A3E0090E0FC01E95BF24F3081FC01ED5BF24F6F
:101A4E002081321709F1FC01EE0FFF1FE55DF24F09
:101A5E00A081B181FC01ED5BF24F208130E0322F8D
:101A6E00222720503E4F2C93208130E02F5F3F4F96
:101A7E00307833232CF4215031093F6F2F5F3F4FC5
:101A8E00FC01ED5BF24F2083880F991FFC01ED5C8A
:101A9E00F24F0190F081E02D80818F7D808308953B
:101AAE000F931F93CF93DF938C01BC016A5F7F4F1F
:101ABE0080E841E00E94560BB801685F7F4F80E8D6
:101ACE0041E00E94560BD0E00FC068EB6D0FC801CD
:101ADE000E944A0CC0E005C060E0C8010E94960C4E
:101AEE00CF5FC034C8F3DF5FD83078F360E4C8014D
:101AFE000E944A0C68EBC8010E944A0CDF91CF91FC
:061B0E001F910F910895E4
:101B14009B01482F61157105810539F1FB01542F93
:101B24000E94C70F62956F706770862FF901542F5A
:101B34000E94C70F6F7070E06B307105C4F4660FBC
:101B4400771FFB01E150F34F0190F081E02D4081BC
:101B540021E030E0B90102C0660F771F8A95E2F7F1
:101B6400CB018427808381E0089580E0089580E09C
:021B74000895D2
:101B76000E943A0F88F09F5798F0B92F9927B751CE
:101B8600B0F0E1F0660F771F881F991F1AF0BA951B
:101B9600C9F714C0B13091F00E94C00FB1E00895AA
:101BA6000C94C00F672F782F8827B85F39F0B93F9C
:101BB600CCF3869577956795B395D9F73EF49095CE
:0E1BC6008095709561957F4F8F4F9F4F0895CA
:101BD4001F920F920FB60F9211240BB60F922F93F0
:101BE4003F934F935F936F937F938F939F93AF93A1
:101BF400BF93EF93FF9380E00E94AB0BFF91EF91B3
:101C0400BF91AF919F918F917F916F915F914F9110
:101C14003F912F910F900BBE0F900FBE0F901F900E
:021C2400189511
:101C26001F920F920FB60F9211240BB60F922F939D
:101C36003F934F935F936F937F938F939F93AF934E
:101C4600BF93EF93FF9381E00E94AB0BFF91EF915F
:101C5600BF91AF919F918F917F916F915F914F91BE
:101C66003F912F910F900BBE0F900FBE0F901F90BC
:021C76001895BF
:101C78001F920F920FB60F9211240BB60F922F934B
:101C88003F934F935F936F937F938F939F93AF93FC
:101C9800BF93EF93FF9382E00E94AB0BFF91EF910C
:101CA800BF91AF919F918F917F916F915F914F916C
:101CB8003F912F910F900BBE0F900FBE0F901F906A
:021CC80018956D
:101CCA001F920F920FB60F9211240BB60F922F93F9
:101CDA003F934F935F936F937F938F939F93AF93AA
:101CEA00BF93EF93FF9383E00E94AB0BFF91EF91B9
:101CFA00BF91AF919F918F917F916F915F914F911A
:101D0A003F912F910F900BBE0F900FBE0F901F9017
:021D1A0018951A
:101D1C001F920F920FB60F9211240BB60F922F93A6
:101D2C003F934F935F936F937F938F939F93AF9357
:101D3C00BF93EF93FF9380E00E941F0DFF91EF91F3
:101D4C00BF91AF919F918F917F916F915F914F91C7
:101D5C003F912F910F900BBE0F900FBE0F901F90C5
:021D6C001895C8
:101D6E001F920F920FB60F9211240BB60F922F9354
:101D7E003F934F935F936F937F938F939F93AF9305
:101D8E00BF93EF93FF9381E00E941F0DFF91EF91A0
:101D9E00BF91AF919F918F917F916F915F914F9175
:101DAE003F912F910F900BBE0F900FBE0F901F9073
:021DBE00189576
:101DC0001F920F920FB60F9211240BB60F922F9302
:101DD0003F934F935F936F937F938F939F93AF93B3
:101DE000BF93EF93FF9382E00E941F0DFF91EF914D
:101DF000BF91AF919F918F917F916F915F914F9123
:101E00003F912F910F900BBE0F900FBE0F901F9020
:021E1000189523
:101E12001F920F920FB60F9211240BB60F922F93AF
:101E22003F934F935F936F937F938F939F93AF9360
:101E3200BF93EF93FF9383E00E941F0DFF91EF91F9
:101E4200BF91AF919F918F917F916F915F914F91D0
:101E52003F912F910F900BBE0F900FBE0F901F90CE
:021E62001895D1
:101E640057FD9058440F551F59F05F3F71F0479547
:101E7400880F97FB991F61F09F3F79F0879508952C
:101E8400121613061406551FF2CF4695F1DF08C04B
:101E9400161617061806991FF1CF86957105610568
:041EA4000894089501
:101EA8001F920F920FB60F9211240BB60F928F93B9
:101EB800EF93FF93EAE7F0E0808180618083FF91F0
:101EC800EF918F910F900BBE0F900FBE0F901F9048
:021ED80018955B
:101EDA00CF93DF93EC01BC016A5F7F4F80E80E94D9
:101EEA008A0D2896BE0180E80E948A0DDF91CF9163
:021EFA00089549
:101EFC00092E0394000C11F4882352F0BB0F40F40C
:101F0C00BF2B11F460FF04C06F5F7F4F8F4F9F4F4B
:021F1C00089526
:101F1E00EC010E94DC0F0E94DB0FCE010E94DD0F50
:061F2E00CE010E94D90F54
:101F34001F920F920FB60F9211240F900FBE0F90A5
:041F44001F9018953D
:0E1F48005058BB27AA270E94EF0A0C947E0F68
:0E1F56000E94BB0D6894B1110C94C10F089548
:0E1F640000240A94161617061806090608959A
:0E1F720000240A94121613061406050608959C
:0E1F8000E894BB2766277727CB0197F90895D1
:0E1F8E0057FD03C05BBF679108956081089501
:0C1F9C0097F99F6780E870E060E008950E
:061FA8009FEF80EC08959C
:041FAE000C9400008F
:041FB2000E94AD00DC
:021FB60008958C
:021FB80008958A
:021FBA00089588
:101FBC00000000000000005F000000070007001494
:101FCC007F147F14242A7F2A122313086462364953
:101FDC005522500005030000001C22410000412244
:101FEC001C0014083E081408083E08080050300075
:101FFC0000080808080800606000002010080402AF
:10200C003E5149453E00427F4000426151494621C4
:10201C0041454B311814127F1027454545393C4A30
:10202C004949300171090503364949493606494980
:10203C00291E0036360000005636000008142241D6
:10204C00001414141414004122140802015109063E
:10205C00324979413E7E1111117E7F494949363E04
:10206C00414141227F4141221C7F494949417F091D
:10207C000909013E4149497A7F0808087F00417FE0
:10208C0041002040413F017F081422417F404040E5
:10209C00407F020C027F7F0408107F3E4141413E8D
:1020AC007F090909063E4151215E7F0919294646DF
:1020BC004949493101017F01013F4040403F1F2008
:1020CC0040201F3F4038403F6314081463070870DA
:1020DC0008076151494543007F4141000204081043
:1020EC00200041417F000402010204404040404076
:1020FC00000102040020545454787F48444438387A
:10210C0044444420384444487F3854545418087E7E
:10211C000901020C5252523E7F0804047800447D9F
:10212C0040002040443D007F1028440000417F4087
:10213C00007C041804787C0804047838444444383F
:10214C007C14141408081414187C7C080404084823
:10215C0054545420043F4440203C4040207C1C20DC
:10216C0040201C3C4030403C44281028440C50502B
:10217C00503C4464544C44000836410000007F003D
:10218C0000004136080010080810087846414678CF
:10219C007300720062002000110001000000005268
:0F21AC00004200320022001200020063003000E7
:1021BB002200250028002B002E00310034000201E4
:0621CB00050108010B01F3
:1021D1002100240027002A002D00300033000101D6
:0621E100040107010A01E0
:0821E700C600CE00D60036014F
:0821EF00C100C900D10031015B
:0821F700C000C800D000300157
:00000001FF
